:020000040800F2
:100000000028002025020008C5010008D1010008D1
:10001000D7010008DD010008E3010008000000002E
:10002000000000000000000000000000E9010008DE
:10003000F501000800000000010200080D020008A0
:100040006D0200086D0200086D0200086D020008D4
:100050006D0200086D0200086D0200086D020008C4
:100060006D0200086D0200086D0200086D020008B4
:100070006D0200086D0200086D0200086D020008A4
:100080006D0200086D0200086D0200086D02000894
:100090006D0200086D0200086D0200086D02000884
:1000A0006D0200086D0200086D0200086D02000874
:1000B0006D0200086D020008000000006D020008DB
:1000C0006D02000800000000000000006D02000842
:1000D000000000006D0200086D0200080000000032
:1000E0006D0200086D0200086D02000800000000AB
:1000F0000000000000000000000000000000000000
:0C01000000000000000000005FF808F1A3
:10010C0010B5054C237833B9044B13B10448AFF345
:10011C0000800123237010BD0400002000000000AB
:10012C00DC02000808B5034B1BB103490348AFF3CD
:10013C00008008BD0000000008000020DC02000860
:10014C0080B483B000AF194B1B68184A43F004030A
:10015C001360174B1B68164A23F470031360144B7F
:10016C001B68134A43F400131360124B1B68114AAB
:10017C0043F40053136000237B6002E07B6801337F
:10018C007B607B68B3F5FA7FF8DB0A4B1B68094A86
:10019C0023F40053136000233B6002E03B680133FF
:1001AC003B603B68B3F5FA7FF8DBDEE718100240E2
:1001BC00040801400C08014080B400AF00BFBD46EC
:1001CC0080BC704780B400AFFEE780B400AFFEE7A0
:1001DC0080B400AFFEE780B400AFFEE780B400AFA0
:1001EC0000BFBD4680BC704780B400AF00BFBD46A9
:1001FC0080BC704780B400AF00BFBD4680BC704768
:10020C0080B500AF00F02EF800BF80BD80B400AF09
:10021C0000BFBD4680BC70470C480D490D4A0023F9
:10022C0002E0D458C4500433C4188C42F9D30A4A9F
:10023C000A4C002301E013600432A242FBD3FFF707
:10024C00E5FF00F021F8FFF77BFF7047000000206E
:10025C0004000020FC020008040000202400002000
:10026C00FEE7000080B400AF054B1B781A46054B27
:10027C001B681344034A136000BFBD4680BC704723
:10028C00000000202000002070B500250C4E0D4C05
:10029C00A41BA410A54209D100F01AF800250A4E9F
:1002AC000A4CA41BA410A54205D170BD56F82530EC
:1002BC0098470135EEE756F8253098470135F2E7B7
:1002CC00F4020008F4020008F4020008F802000826
:1002DC00F8B500BFF8BC08BC9E467047F8B500BF27
:0802EC00F8BC08BC9E467047F7
:0402F40031010008CC
:0402F8000D010008EC
:0402FC0001000000FD
:0400000508000225C8
:00000001FF
